:100000000C9436000C9448000C9448000C94480062
:100010000C9448000C9448000C9448000C94480040
:100020000C9448000C9448000C9448000C94480030
:100030000C9448000C9448000C9448000C94480020
:100040000C9448000C9448000C9448000C94480010
:100050000C9448000C9448000C9448000C94480000
:100060000C9448000C9448000C94480011241FBEC6
:10007000CFEFD4E0DEBFCDBF21E0A0E0B1E001C012
:100080001D92A230B207E1F70E9451000C94690062
:100090000C94000084B1837D84B9249A80E48CBDE3
:1000A00008950E944A000DB407FEFDCF8EB581343D
:1000B000D1F7809100019091010101969093010187
:1000C00080930001059779F71092010110920001C9
:0600D000EACFF894FFCF17
:00000001FF
