S00F000064656E656D65312E7372656376
S11300000C943F000C945C000C945C000C945C0019
S11300100C945C000C945C000C945C000C945C00EC
S11300200C945C000C945C000C945C000C945C00DC
S11300300C945C000C945C000C945C000C945C00CC
S11300400C945C000C945C000C945C000C945C00BC
S11300500C945C000C945C000C945C000C945C00AC
S11300600C945C000C945C000C945C0045000082D1
S11300700000400020FFFFFFFFFFFFFFFF001124EF
S11300801FBECFEFD4E0DEBFCDBF11E0A0E0B1E0F2
S1130090ECE5FAE002C005900D92AC32B107D9F755
S11300A023E0ACE2B1E001C01D92AB3CB207E1F742
S11300B00E94CD040C942C050C9400002A98962FD1
S11300C09F71892B8EBD0DB407FEFDCF1EBC0DB4F0
S11300D007FEFDCF67FD03C02A9A8EB508951EBCA6
S11300E00DB407FEFDCFF8CF2A986F71862B8EBD15
S11300F00DB407FEFDCF4EBD0DB407FEFDCF2A9A09
S11301000895FB012A982AE32EBD0DB407FEFDCF06
S11301108E0F9F1FE817F90739F01EBC0DB407FEB8
S1130120FDCF2EB52193F6CF10822A9A08952A98EE
S11301302AE72EBD0DB407FEFDCF860F971F681763
S1130140790741F0FB012191BF012EBD0DB407FEDB
S1130150FDCFF5CF2A9A08951F93CF93DF93182FDD
S11301601076C12FD0E080912E0190E0C817D907F6
S113017089F043E06FE180EA0E947400AE0185E0FB
S1130180559547958A95E1F76FE180E80E947400E0
S113019010932E01DF91CF911F910895CF93C82F13
S11301A00E94AC006C2F80E0CF910C945E00CF9342
S11301B0DF93C82FD62F0E94AC004D2F6C2F80E404
S11301C0DF91CF910C947400682F84ED0E94D700C6
S11301D061E082ED0E94D70088E28A95F1F78AEE09
S11301E00E94CE0080FDFBCF60E082ED0E94D7002C
S11301F089ED0E94CE0090E00895CF93DF93D62F2F
S1130200C72F682F84ED0E94D7006D2F86ED0E94C2
S1130210D7006C2F87ED0E94D700C8E28AEE0E94B7
S1130220CE0080FF04C08C2F8A95F1F7F7CFDF91C1
S1130230CF910895682F677085E70C94D700CF930A
S1130240DF93EC01229A2A9A84B1886284B9249AB1
S11302502B9A2D9A80E58CBD8DB581608DBD4FEFB5
S113026060E08FEF0E94740080E090E00197F1F766
S113027010922D0110922C0160E088E00E94D700BA
S113028060E089E00E94D70060E08CE00E94D70023
S113029060E08DE00E94D7006EEF8AE00E94D700F4
S11302A069E18BE00E94D7006FEF84E00E94D700E1
S11302B069E185E00E94D7006FEF86E00E94D700D5
S11302C06FE187E00E94D70060EB88E30E94D700CB
S11302D06FE388E20E94D70060E389E20E94D700BE
S11302E069EF80E30E94D70067EF81E30E94D700A3
S11302F06DE080EC0E94D70060E081EC0E94D700A2
S113030042E362EC80E80E94740062E186EC0E94A1
S1130310D7006CE087EC0E94D70062E184EC0E9475
S1130320D7006CED8AEC0E94D70065E08BEC0E944C
S1130330D700688184EE0E94D700698185EE0E940F
S1130340D7006A8182EE0E94D7006B8183EE0E94FF
S1130350D7006C8180EE0E94D7006D8181EE0E94EF
S1130360D70060E071E080E10E94FD008FE10E940F
S1130370AC0040EC6BE180E80E94740044E06FE163
S113038080E8DF91CF910C94740081E10E94E40035
S113039021E0892B09F420E0822F08950F931F9305
S11303A0CF93DF93EC018B016FE180E00E945E004C
S11303B083FF10C08CE10E94CE0081FFF5CF40E89E
S11303C06FE180E80E94740040E86FE180EA0E94D7
S11303D07400EACF6FEF82E00E94D70069E183E006
S11303E00E94D7006C2F615086E00E94D700CE0196
S11303F08150964E692F87E00E94D70040E060E06C
S11304008AE70E947400B801CE010E94970048E078
S11304106FE180E8DF91CF911F910F910C947400EC
S11304209F92AF92BF92CF92DF92EF92FF920F937F
S11304301F93CF93DF93C82F5B016A0190902C0127
S1130440D0912D0181E00E94AC0089E30E94CE008E
S1130450882309F480C080E00E94AC00692D80E00C
S11304600E94D7006D2F81E00E94D70060E08AE3EC
S11304700E945E00082F60E08AE30E945E0010E0A4
S1130480182B10932D0100932C0160E08AE30E9445
S11304905E00E82EF12C60E08AE30E945E00970182
S11304A0382BC9012C2F30E0AC014E5051094217B2
S11304B0530710F4C2EFC80F892D9D2F7C013CE037
S11304C0E30EF11C2FEFE21629E1F20628F07C017D
S11304D033EFE31A39E1F30A6E2D80E00E94D7006E
S11304E06F2D81E00E94D700B50186E090E00E9464
S11304F0810060E08AE30E945E0081110DC060E02B
S11305008AE30E945E008C1708F4C82FB6018C2F72
S113051090E00E94810001C0C0E0780181E0E81A07
S1130520F1082FEFE21629E1F20630F06EEF8CE0CD
S11305300E94D70069E106C06FEF600F8CE00E9453
S1130540D7006F2D8DE00E94D70040E46EE180E873
S11305500E9474008C2FDF91CF911F910F91FF9017
S1130560EF90DF90CF90BF90AF909F900895EF925F
S1130570FF920F931F93CF93DF93C82F7B018A01C0
S113058080E00E94AC006FE180E00E945E0083FF87
S113059010C08CE10E94CE0081FFF5CF40E86FE1EE
S11305A080E80E94740040E86FE180EA0E947400D1
S11305B0EACF60E082E00E94D7006AE183E00E9413
S11305C0D700B70186E090E00E9497006CE082E0DB
S11305D00E94D7006AE183E00E94D70040E060E017
S11305E08AE70E9474004C2F60E08AE70E9474003E
S11305F0D0E0B801CE010E949700C35FD54E6C2FA6
S113060086E00E94D7006D2F87E00E94D70048E063
S11306106FE180E8DF91CF911F910F91FF90EF90F0
S11306200C9474000F931F93CF93DF93FC019B01F1
S1130630413051F4AB014850510960E070E04F5E25
S11306405F4F6F4F7F4F0FC0423051F4AB014850A2
S1130650510960E070E04A5F5F4F6F4F7F4F03C006
S113066040E050E0BA01C901EF018230910558F031
S1130670A991B991BA27AB27BA274A0F5B1F611D0D
S1130680711D0297F2CFC9018E7FE80FF91F281759
S1130690390761F0808190E0A0E0B0E0BA2FA92F83
S11306A0982F8827480F591F6A1F7B1F8B01222709
S11306B03327011511052105310539F06627772700
S11306C0400F511F621F731FF1CFCA01809590958F
S11306D0DF91CF911F910F91089550933901409369
S11306E00001FB01AFE2B1E021912D9321E0A3339E
S11306F0B207D1F7FC01A3E3B1E081918D9381E0CE
S1130700A933B807D1F70895CF93DF93EC01188E7E
S1130710198E80E48C8B1D8A8E8B40E064E170E03E
S1130720CE010E960E941203988F898FDF91CF918C
S11307300895680F791F8617970741F0FA012491ED
S1130740FC012193CF014E5F5F4FF5CF0895CF9207
S1130750DF92EF92FF920F931F93CF93DF93EC01FD
S1130760162F072F6A01F22EE32E41E251E0DC013D
S113077083E391E0FA012191AF012D93FC012191D2
S1130780CF0115962C931597F1E047325F0791F747
S113079088E08C871D864CE650E069E070E0CE016D
S11307A00E960E949903188A81E18F8BA601AFE20D
S11307B0B1E0CE014A96FA012191AF01FC012483F4
S11307C02D912193CF01F1E0A333BF07A1F7ECA250
S11307D0FDA20AA31BA31EA218A619A6DF91CF91FE
S11307E01F910F91FF90EF90DF90CF9008950F939A
S11307F01F93CF93DF93EC01062F8CE1860F898B37
S1130800CE010E94840388E0800F8FA310E0B8011A
S1130810605F7F4F41E0CE014A960E94120398A781
S113082089A7BE01C8018A96DF91CF911F910F91CC
S11308300C94CE01BF92CF92DF92EF92FF920F936E
S11308401F93CF93DF936C01D62FB72EC42FB9011A
S1130850A80197010E94A7036C2FCD3D08F06CED11
S11308609D2FD6019A96ED2FFB2D8E2F891B86176F
S113087018F481918D93F9CFC601DF91CF911F9127
S11308800F91FF90EF90DF90CF90BF900C94F703FF
S1130890EF92FF920F931F93CF93DF938C0180E02D
S11308A00E94AC006FE180E00E945E0083FF10C0F4
S11308B08CE10E94CE0081FFF5CF40E86FE180E833
S11308C00E94740040E86FE180EA0E947400EACF5D
S11308D060E082E00E94D7006AE183E00E94D700D2
S11308E0C6E04FEF60E08AE70E947400C150C9F788
S11308F06CE082E00E94D7006AE183E00E94D700A6
S1130900C5E7D0E0FE01449160E08AE70E947400EC
S11309102196F0E0CF37DF07A9F7E8010A5F1F4F00
S1130920499160E08AE70E947400C017D107C1F7BB
S1130930C7E2D1E08BE2E82E81E0F82E8E01F801C7
S113094041918F0160E08AE70E947400F1E00B326C
S11309501F07A9F716E04FEF60E08AE70E947400D2
S11309601150C9F7499160E08AE70E947400EC16BF
S1130970FD06C1F769E286E00E94D7006AE187E0DC
S11309800E94D70048E06FE180E8DF91CF911F918A
S11309900F91FF90EF900C947400C0E08C2F8A9517
S11309A0F1F78BE191E00E941F0182E00E941A019D
S11309B08C2F8A95F1F766E774E084E10E94FD00CC
S11309C0CA95F1F740ED57E067E171E08BE191E002
S11309D00E946D030E94C5018823E1F32FEF80E795
S11309E092E0215080409040E1F700C000008BE18C
S11309F091E00E944804C0E080E8E82E85E2F82EE9
S1130A0003E111E020ED37E042E161E071E08AE3C7
S1130A1091E00E941A042FEF83ED90E3215080406F
S1130A209040E1F700C000004AE351E065EC73E058
S1130A308AE80E9410028823F9F21BB8CF5F86B1BE
S1130A4080933B01C0933C014AE351E065EC73E0C1
S10F0A508AE80E94B702D0CFF894FFCFD0
S1130A5C5001020304050000000000000000000027
S1130A6C000000C0A80218C0A802172222221000FD
S10F0A7C33000000000000C0A8021700B6
S9030000FC
