:100000000C9436000C9448000C9448000C94480062
:100010000C9448000C9448000C9448000C94480040
:100020000C9448000C9448000C9448000C94480030
:100030000C9448000C9448000C9456000C94480012
:100040000C9448000C9448000C9448000C94480010
:100050000C9448000C9448000C9448000C94480000
:100060000C9448000C9448000C94480011241FBEC6
:10007000CFEFD4E0DEBFCDBF21E0A0E0B1E001C012
:100080001D92A230B207E1F70E944A000C9474005E
:100090000C9400008FEF84B982E084BD9AEE97BD86
:1000A00080936E00789485E085BDFFCF1F920F92FC
:1000B0000FB60F9211248F939F938091000190911E
:1000C0000101019690930101809300011816190611
:1000D00024F495B180E2892785B99F918F910F9083
:0C00E0000FBE0F901F901895F894FFCFF2
:00000001FF
