:100000000C9436000C9448000C9448000C94480062
:100010000C9448000C9448000C9448000C94480040
:100020000C9448000C9448000C9448000C94480030
:100030000C9448000C9448000C9448000C94480020
:100040000C9448000C9448000C9448000C94480010
:100050000C9448000C9448000C9448000C94480000
:100060000C9448000C9448000C94480011241FBEC6
:10007000CFEFD4E0DEBFCDBF21E0A0E0B1E001C012
:100080001D92A130B207E1F70E9456000C945E0069
:100090000C9400008CE284B9249880E58CBD08950E
:1000A0008EBD0DB407FEFDCF8EB508950E944A00A7
:1000B00081E40E94500080930001FACFF894FFCFB2
:00000001FF
