:100000000C9436000C9448000C9448000C94480062
:100010000C9448000C9448000C9448000C94480040
:100020000C9448000C9448000C9448000C94480030
:100030000C9448000C9448000C9448000C94480020
:100040000C9448000C9448000C9448000C94480010
:100050000C9448000C9448000C9448000C94480000
:100060000C9448000C9448000C94480011241FBEC6
:10007000CFEFD4E0DEBFCDBF21E0A0E0B1E001C012
:100080001D92A030B207E1F70E944A000C94630071
:100090000C94000087E68093C4001092C50088E0AD
:1000A0008093C10086E08093C20084B1837D84B9CF
:1000B000249A80E48CBDE6ECF0E00DB407FEFDCFA1
:0A00C0008EB58083FACFF894FFCFCD
:00000001FF
