S00F000064656E656D65322E7372656375
S11300000C943B000C9458000C9458000C94580029
S11300100C9458000C9458000C9458000C945800FC
S11300200C9458000C9458000C9458000C945800EC
S11300300C9458000C9458000C9458000C945800DC
S11300400C9458000C9458000C94CF030C94580052
S11300500C9458000C9458000C9458000C945800BC
S11300600C9458000C9458000C94580045000082DD
S113007000004000200011241FBECFEFD4E0DEBFFB
S1130080CDBF11E0A0E0B1E0E6EEF7E002C00590DC
S11300900D92A833B107D9F724E0A8E3B1E001C079
S11300A01D92A236B207E1F70E9466030C94F10395
S11300B00C9400002A98962F6F71862B8EBD0DB478
S11300C007FEFDCF1EBC0DB407FEFDCF992324F41B
S11300D01EBC0DB407FEFDCF2A9A8EB508952A984A
S11300E06F71862B8EBD0DB407FEFDCF4EBD0DB4D2
S11300F007FEFDCF2A9A0895FB012A982AE72EBD10
S11301000DB407FEFDCF09C09F01280F391F91913F
S11301109EBD0DB407FEFDCF03C00097A9F703C031
S11301202E173F07A1F72A9A08951F93CF93DF93C1
S1130130182F1076C12FD0E080913A0190E0C817B3
S1130140D907B1F043E06FE180EA0E946F00AE018D
S11301505595479555954795559547955595479583
S1130160559547956FE180E80E946F0010933A011E
S1130170DF91CF911F910895CF93C82F0E949500CE
S11301806C2F80E00E945A00CF910895CF93DF93A3
S1130190C82FD62F0E9495004D2F6C2F80E40E940B
S11301A06F00DF91CF910895CF93DF93D62FC72FA0
S11301B0682F84ED0E94C6006D2F86ED0E94C60054
S11301C06C2F87ED0E94C600C8E203C08C2F8A956D
S11301D0F1F78AEE0E94BC0080FDF8CFDF91CF9149
S11301E00895682F677085E70E94C6000895CF932D
S11301F0DF93EC01229A2A9A84B1886284B9249A02
S11302002B9A2D9A80E58CBD8DB581608DBD4FEF05
S113021060E08FEF0E946F0080E090E00197F1F7BB
S1130220109239011092380160E088E00E94C60003
S113023060E089E00E94C60060E08CE00E94C60095
S113024060E08DE00E94C6006EEF8AE00E94C60066
S113025069E18BE00E94C6006FEF84E00E94C60053
S113026069E185E00E94C6006FEF86E00E94C60047
S11302706FE187E00E94C60060EB88E30E94C6003D
S11302806FE388E20E94C60060E389E20E94C60030
S113029069EF80E30E94C60067EF81E30E94C60015
S11302A06DE080EC0E94C60060E081EC0E94C60014
S11302B042E362EC80E80E946F0062E186EC0E94F7
S11302C0C6006CE087EC0E94C60062E184EC0E94E8
S11302D0C6006CED8AEC0E94C60065E08BEC0E94BF
S11302E0C600688184EE0E94C600698185EE0E9482
S11302F0C6006A8182EE0E94C6006B8183EE0E9472
S1130300C6006C8180EE0E94C6006D8181EE0E9461
S1130310C60060E071E080E10E94D4008FE10E9499
S1130320950040EC6BE180E80E946F0044E06FE1CF
S113033080E80E946F00DF91CF9108950F931F937F
S1130340CF93DF93EC018B010FC08CE10E94BC00C2
S113035081FF0AC040E86FE180E80E946F0040E836
S11303606FE180EA0E946F006FE180E00E945A0012
S113037083FDEBCF6FEF82E00E94C60069E183E06A
S11303800E94C6006C2F615086E00E94C600CE0118
S11303908150964E692F87E00E94C60040E060E0DD
S11303A08AE70E946F00B801CE010E947C0048E0F9
S11303B06FE180E80E946F00DF91CF911F910F9150
S11303C00895CF92DF92EF92FF92CF93DF93EC01E7
S11303D0DB01413061F46B0188E0C81AD108E12CDB
S11303E0F12C81E1C80ED11CE11CF11C11C042307A
S11303F061F46B0188E0C81AD108E12CF12C86E085
S1130400C80ED11CE11CF11C03C0C12CD12C7601F7
S1130410A230B105F0F09D01FE01408150E060E0A2
S113042070E0762F652F542F44278181482BC40E0A
S1130430D51EE61EF71E32962250310922303105B0
S113044060F7CD0102978E7F0296C80FD91FA17065
S1130450BB27AB2B61F0888190E0A0E0B0E0BA2F1D
S1130460A92F982F8827C80ED91EEA1EFB1EA701A4
S113047066277727411551056105710571F0EE2452
S1130480FF24C40ED51EE61EF71EA7016627772794
S1130490411551056105710591F7C6018095909547
S11304A0DF91CF91FF90EF90DF90CF90089550931C
S11304B0500140930001A62FB72FEBE3F1E04FE387
S11304C051E02D912193E417F507D9F7A82FB92FFF
S11304D0EFE3F1E025E431E08D918193E217F30736
S11304E0D9F70895CF93DF93EC01188E198E80E429
S11304F08C8B1D8A8E8B40E064E170E0CE010E96F9
S11305000E94E101988F898FDF91CF910895DC01DA
S1130510FA016115710541F0680F791F84918D937B
S113052032966A177B07D1F70895AF92BF92CF92A4
S1130530DF92EF92FF920F931F93CF93DF935C01AF
S1130540162F072FC42ED52EF22EE32EA6E4B1E0EB
S1130550FC018FE391E04CE451E02D912193EC01F7
S11305602991CE012583A417B507B9F788E0F501D1
S1130570848715864CE650E069E070E0C5010E966C
S11305800E948702E501188A81E18F8B8C2D9D2DB5
S1130590ABE3B1E0F5017A964FE351E0EC01299128
S11305A0CE0124832D912193A417B507B9F7F50142
S11305B0E4A2F5A202A313A316A210A611A6DF912A
S11305C0CF911F910F91FF90EF90DF90CF90BF904C
S11305D0AF9008950F931F93CF93DF93EC01062FF1
S11305E08CE1860F898BCE010E94720288E0800F15
S11305F08FA310E0B801605F7F4F41E0CE014A96BF
S11306000E94E10198A789A7BE01C8018A960E94A9
S11306109E01DF91CF911F910F910895BF92CF92C8
S1130620DF92EF92FF920F931F93CF93DF93EC012E
S1130630B62EC72ED42EB901A80197010E949502A7
S11306406D2D6D3D08F06CED662381F0AB2DBC2D56
S1130650FE01BA962FEF260F30E0255D3F4F2C0F99
S11306603D1F8D918193E217F307D9F7CE010E94C4
S1130670EA02DF91CF911F910F91FF90EF90DF90ED
S1130680CF90BF90089521E020934501DC01ECE474
S1130690F1E020E531E08D918193E217F307D9F77A
S11306A008959091DD038091DC03981769F0E92F98
S11306B0F0E0EE51FC4F80819F5F1AF09093DD03D0
S11306C008951092DD03089580E008951092C50006
S11306D087E68093C40080E98093C10086E080931C
S11306E0C2007894C0E08C2F8A95F1F781E391E001
S11306F00E94F70082E00E94F1008C2F8A95F1F7A6
S113070066E774E084E10E94D400CA95F1F740EDF5
S113071057E06DE271E081E391E00E94570285E2C7
S113072091E00E9443030E9451038133D9F40F2EB8
S1130730F0E8EF2EF5E2FF2EF02D09E211E020EDB6
S113074037E042E163E171E081E591E00E940E034C
S11307502FEF83ED90E3215080409040E1F700C0FB
S11307600000E1CF8033F9F60F2EF0EDEF2EF7E025
S1130770FF2EF02D09E211E020E835E242E161E0CC
S113078071E081E591E00E940E032FEF83ED90E389
S1130790215080409040E1F700C00000C4CF1F9278
S11307A00F920FB60F9211248F939F93EF93FF93A1
S11307B08091DC039091C600E82FF0E0EE51FC4FED
S11307C090838F5F1AF08093DC0302C01092DC03E5
S11307D0FF91EF919F918F910F900FBE0F901F90FB
S10907E01895F894FFCF08
S11307E65073656E61000000000000000000000008
S11307F600000001020304050000000000000000E0
S11308060000000000C0A80201C0A80218C0A80287
S10B0816172222221000330016
S9030000FC
