S01200007370695F656570726F6D2E73726563DF
S11300000C9436000C9448000C9448000C9448005E
S11300100C9448000C9448000C9448000C9448003C
S11300200C9448000C9448000C9448000C9448002C
S11300300C9448000C9448000C9448000C9448001C
S11300400C9448000C9448000C9448000C9448000C
S11300500C9448000C9448000C9448000C944800FC
S11300600C9448000C9448000C94480011241FBEC2
S1130070CFEFD4E0DEBFCDBF21E0A0E0B1E001C00E
S11300801D92A230B207E1F70E946A000C94770037
S11300900C9400002A980DB407FEFDCF96E09EBD97
S11300A095B19B6F95B98EBD0DB407FEFDCF8EB58E
S11300B008958CE284B9249885B18B6F85B980E565
S11300C08CBD2A9808958FEF8EBD0DB407FEFDCF29
S11300D08EB508950E94590085B18B6F85B981E46E
S11300E00E944A000E94630080930001F8CFF894B4
S10500F0FFCF3C
S9030000FC
