:100000000C9436000C9453000C9453000C94530041
:100010000C9453000C9453000C9453000C94530014
:100020000C9453000C9453000C9453000C94530004
:100030000C9453000C9453000C9453000C945300F4
:100040000C9453000C9453000C9453000C945300E4
:100050000C9453000C9453000C9453000C945300D4
:100060000C9453000C9453000C94530011241FBEA5
:10007000CFEFD4E0DEBFCDBF11E0A0E0B1E0E0E91A
:10008000F1E002C005900D92A230B107D9F721E04E
:10009000A2E0B1E001C01D92A430B207E1F70E94D6
:1000A000AE000C94C6000C94000082E68093B80069
:1000B00080E88093BC001092B900089584EA809390
:1000C000BC00ECEBF0E080818823ECF7E9EBF0E09A
:1000D0008081887F8830E1F708958093BB0084E8B1
:1000E0008093BC00ECEBF0E080818823ECF7E9EB37
:1000F000F0E08081887F8831E1F708958093BB002C
:1001000084E88093BC00ECEBF0E080818823ECF77E
:10011000E9EBF0E08081887F8832E1F7089584EC94
:100120008093BC00ECEBF0E080818823ECF78091B9
:10013000BB00089584E88093BC00ECEBF0E0808184
:100140008823ECF38091BB00089584E98093BC0080
:10015000ECEBF0E0808184FDFDCF08950E94550016
:100160000E945E0080EA0E946D00809100010E9462
:100170007E000E94A5000E945E000E948F00809376
:1001800003010E949A000E94A500EACFF894FFCFD5
:0201900041002C
:00000001FF
