S00E00005553415254342E7372656353
S11300000C9436000C9448000C9448000C9448005E
S11300100C9448000C9448000C9448000C9448003C
S11300200C9448000C9448000C9448000C9448002C
S11300300C9448000C9448000C9448000C9448001C
S11300400C9448000C9448000C9478000C944800DC
S11300500C9448000C9448000C9448000C944800FC
S11300600C9448000C9448000C94480011241FBEC2
S1130070CFEFD4E0DEBFCDBF21E0A0E0B1E001C00E
S11300801D92A238B207E1F70E945F000C949A0017
S11300900C9400009091010180910001981769F07F
S11300A0E92FF0E0EE5FFE4F80819F5F1AF090939E
S11300B00101089510920101089580E008958FEFE1
S11300C084B91092C50087E68093C40080E98093C8
S11300D0C10086E08093C2007894CFEF0E944A006A
S11300E0813311F4C5B9FACF8033C1F715B8F6CF0F
S11300F01F920F920FB60F9211248F939F93EF9339
S1130100FF93809100019091C600E82FF0E0EE5F2C
S1130110FE4F90838F5F1AF08093000102C010920B
S11301200001FF91EF919F918F910F900FBE0F905F
S10B01301F901895F894FFCF0D
S9030000FC
