S00F000064656E656D65342E7372656373
S11300000C9436000C9453000C9453000C9453003D
S11300100C9453000C9453000C9453000C94530010
S11300200C9453000C9453000C9453000C94530000
S11300300C9453000C9453000C9453000C945300F0
S11300400C9453000C9453000C9453000C945300E0
S11300500C9453000C9453000C9453000C945300D0
S11300600C9453000C9453000C94530011241FBEA1
S1130070CFEFD4E0DEBFCDBF11E0A0E0B1E0E6EB0E
S1130080F6E002C005900D92A031B107D9F723E044
S1130090A0E1B1E001C01D92AE3AB207E1F70E94BF
S11300A009030C9459030C9400002A98962F6F713D
S11300B0862B8EBD0DB407FEFDCF1EBC0DB407FE0E
S11300C0FDCF992324F41EBC0DB407FEFDCF2A9A5C
S11300D08EB508952A986F71862B8EBD0DB407FED8
S11300E0FDCF4EBD0DB407FEFDCF2A9A0895FB0146
S11300F02A982AE32EBD0DB407FEFDCF009769F0C0
S1130100DF01A80FB91F1EBC0DB407FEFDCF9EB5BD
S11301109193EA17FB07B9F701C0DF011C922A9AF1
S11301200895FB012A982AE72EBD0DB407FEFDCFE2
S113013009C09F01280F391F91919EBD0DB407FE80
S1130140FDCF03C00097A9F703C02E173F07A1F7FF
S11301502A9A08951F93CF93DF93182F1076C12FF7
S1130160D0E08091120190E0C817D907B1F043E0C4
S11301706FE180EA0E946A00AE0155954795559556
S113018047955595479555954795559547956FE1ED
S113019080E80E946A0010931201DF91CF911F91B1
S11301A00895CF93C82F0E94AA006C2F80E00E946C
S11301B05500CF910895CF93DF93C82FD62F0E9477
S11301C0AA004D2F6C2F80E40E946A00DF91CF912A
S11301D00895CF93DF93D62FC72F682F84ED0E9405
S11301E0DB006D2F86ED0E94DB006C2F87ED0E94F3
S11301F0DB00C8E203C08C2F8A95F1F78AEE0E94D7
S1130200D10080FDF8CFDF91CF910895682F6770FA
S113021085E70E94DB000895CF93DF93EC01229AD7
S11302202A9A84B1886284B9249A2B9A2D9A80E5FB
S11302308CBD8DB581608DBD4FEF60E08FEF0E9466
S11302406A0080E090E00197F1F71092110110929A
S1130250100160E088E00E94DB0060E089E00E9419
S1130260DB0060E08CE00E94DB0060E08DE00E9437
S1130270DB006EEF8AE00E94DB0069E18BE00E9404
S1130280DB006FEF84E00E94DB0069E185E00E94FF
S1130290DB006FEF86E00E94DB006FE187E00E94E5
S11302A0DB0060EB88E30E94DB006FE388E20E94DE
S11302B0DB0060E389E20E94DB0069EF80E30E94D7
S11302C0DB0067EF81E30E94DB006DE080EC0E94BD
S11302D0DB0060E081EC0E94DB0042E362EC80E83A
S11302E00E946A0062E186EC0E94DB006CE087EC0D
S11302F00E94DB0062E184EC0E94DB006CED8AEC7E
S11303000E94DB0065E08BEC0E94DB00688184EED8
S11303100E94DB00698185EE0E94DB006A8182EE27
S11303200E94DB006B8183EE0E94DB006C8180EE17
S11303300E94DB006D8181EE0E94DB0060E071E0D1
S113034080E10E94E9008FE10E94AA0040EC6BE189
S113035080E80E946A0044E06FE180E80E946A003D
S1130360DF91CF9108950F931F93CF93DF93EC0107
S11303708B010FC08CE10E94D10081FF0AC040E8CC
S11303806FE180E80E946A0040E86FE180EA0E9421
S11303906A006FE180E00E94550083FDEBCF6FEFB0
S11303A082E00E94DB0069E183E00E94DB006C2FA5
S11303B0615086E00E94DB00CE018150964E692F89
S11303C087E00E94DB0040E060E08AE70E946A0068
S11303D0B801CE010E94910048E06FE180E80E94DC
S11303E06A00DF91CF911F910F910895AF92BF9250
S11303F0CF92DF92EF92FF920F931F93CF93DF93ED
S11304006C017B0189E30E94D100882309F46DC04B
S113041060911001C091110180E00E94DB006C2FFB
S113042081E00E94DB0060E08AE30E945500C82F4F
S113043060E08AE30E945500D0E0D82BD0931101EC
S1130440C093100160E08AE30E945500B82E60E07A
S11304508AE30E945500A82E60E08AE30E945500BA
S1130460082F60E08AE30E94550007FF11C081E075
S1130470C81AD1080B2D10E01A2904501109C0160E
S1130480D10608F48601B701C8010E94770002C0B2
S113049000E010E06C2F8CE00E94DB006D2F8DE0FB
S11304A00E94DB007E0181E0E81AF1088FEFE81674
S11304B089E1F80648F06EEF8CE00E94DB0069E108
S11304C08DE00E94DB0009C06C2F61508CE00E941B
S11304D0DB006F2D8DE00E94DB0040E46EE180E8DC
S11304E00E946A00802F912F02C080E090E0DF918B
S11304F0CF911F910F91FF90EF90DF90CF90BF901D
S1130500AF9008955093220140930001A62FB72F76
S1130510E3E1F1E047E151E02D912193E417F50780
S1130520D9F7A82FB92FE7E1F1E02DE131E08D9162
S11305308193E217F307D9F7089569327105C8F07A
S1130540FC0124852830B9F425852630B1F436A180
S113055020911301321313C0B796A4E1B1E08A9637
S113056031912D9132130DC0E817F907C9F781E0D5
S1130570089580E0089580E0089580E0089580E083
S1130580089580E00895FC01A7E1B1E09C012A5F91
S11305903F4F868181938D918583E217F307C9F7D5
S11305A00895CF93DF93EC010E94C3021C8A82E07A
S11305B08D8BA7E1B1E0FE0176962DE131E08081DB
S11305C082878D918193A217B307C9F7A3E1B1E0A4
S11305D0FE017C9627E131E0808182878D918193B1
S11305E0A217B307C9F7BE018AE290E00E94B301E3
S11305F0DF91CF91089521E020931D01DC01EEE10C
S1130600F1E022E231E08D918193E217F307D9F70B
S113061008958FEF8AB91BB8C0E08C2F8A95F1F743
S113062089E091E00E940C0182E00E9406018C2F77
S11306308A95F1F766E774E084E10E94E900CA95BF
S1130640F1F740ED57E065E071E089E091E00E9448
S1130650820281E091E00E94FB0287E68093C4005D
S11306601092C50088E08093C10086E08093C200A8
S11306701092B90082E68093B80084E08093BC00B5
S1130680C6ECD0E063E271E08AE892E00E94F601F1
S11306900097C1F320914D012883BC0183E291E0CE
S11306A00E949D02892B71F383E291E00E94D102A2
S10906B0E9CFF894FFCF2E
S11306B650C0A80206C0A802062222221000330057
S9030000FC
