:100000000C943B000C9458000C9458000C9458002D
:100010000C9458000C9458000C9458000C94580000
:100020000C9458000C9458000C9458000C945800F0
:100030000C9458000C9458000C9458000C945800E0
:100040000C9458000C9458000C9458000C945800D0
:100050000C9458000C9458000C9458000C945800C0
:100060000C9458000C9458000C94580045000082E1
:1000700000004000200011241FBECFEFD4E0DEBFFF
:10008000CDBF11E0A0E0B1E0ECE1FAE002C00590E4
:100090000D92A832B107D9F723E0A8E2B1E001C080
:1000A0001D92AB3CB207E1F70E94A0040C940C0532
:1000B0000C9400002A98962F6F71862B8EBD0DB47C
:1000C00007FEFDCF1EBC0DB407FEFDCF992324F41F
:1000D0001EBC0DB407FEFDCF2A9A8EB508952A984E
:1000E0006F71862B8EBD0DB407FEFDCF4EBD0DB4D6
:1000F00007FEFDCF2A9A0895FB012A982AE32EBD18
:100100000DB407FEFDCF009769F0DF01A80FB91FFE
:100110001EBC0DB407FEFDCF9EB59193EA17FB07F9
:10012000B9F701C0DF011C922A9A0895FB012A98B1
:100130002AE72EBD0DB407FEFDCF09C09F01280F91
:10014000391F91919EBD0DB407FEFDCF03C00097EE
:10015000A9F703C02E173F07A1F72A9A08951F9306
:10016000CF93DF93182F1076C12FD0E080912A0112
:1001700090E0C817D907B1F043E06FE180EA0E9430
:100180006F00AE01559547955595479555954795FF
:1001900055954795559547956FE180E80E946F000A
:1001A00010932A01DF91CF911F910895CF93C82F0B
:1001B0000E94AF006C2F80E00E945A00CF910895FA
:1001C000CF93DF93C82FD62F0E94AF004D2F6C2FF7
:1001D00080E40E946F00DF91CF910895CF93DF9369
:1001E000D62FC72F682F84ED0E94E0006D2F86ED7B
:1001F0000E94E0006C2F87ED0E94E000C8E203C07F
:100200008C2F8A95F1F78AEE0E94D60080FDF8CFF8
:10021000DF91CF910895682F677085E70E94E00015
:100220000895CF93DF93EC01229A2A9A84B18862D1
:1002300084B9249A2B9A2D9A80E58CBD8DB5816066
:100240008DBD4FEF60E08FEF0E946F0080E090E087
:100250000197F1F7109229011092280160E088E0DF
:100260000E94E00060E089E00E94E00060E08CE035
:100270000E94E00060E08DE00E94E0006EEF8AE006
:100280000E94E00069E18BE00E94E0006FEF84E0F3
:100290000E94E00069E185E00E94E0006FEF86E0E7
:1002A0000E94E0006FE187E00E94E00060EB88E3DD
:1002B0000E94E0006FE388E20E94E00060E389E2D0
:1002C0000E94E00069EF80E30E94E00067EF81E3B5
:1002D0000E94E0006DE080EC0E94E00060E081ECB4
:1002E0000E94E00042E362EC80E80E946F0062E15D
:1002F00086EC0E94E0006CE087EC0E94E00062E186
:1003000084EC0E94E0006CED8AEC0E94E00065E065
:100310008BEC0E94E000688184EE0E94E00069811D
:1003200085EE0E94E0006A8182EE0E94E0006B810F
:1003300083EE0E94E0006C8180EE0E94E0006D81FF
:1003400081EE0E94E00060E071E080E10E94EE003A
:100350008FE10E94AF0040EC6BE180E80E946F00EB
:1003600044E06FE180E80E946F00DF91CF91089533
:100370000F931F93CF93DF93EC018B010FC08CE1A0
:100380000E94D60081FF0AC040E86FE180E80E9429
:100390006F0040E86FE180EA0E946F006FE180E04B
:1003A0000E945A0083FDEBCF6FEF82E00E94E000D5
:1003B00069E183E00E94E0006C2F615086E00E94BA
:1003C000E000CE018150964E692F87E00E94E00048
:1003D00040E060E08AE70E946F00B801CE010E9411
:1003E000960048E06FE180E80E946F00DF91CF91B6
:1003F0001F910F910895AF92BF92CF92DF92EF922B
:10040000FF920F931F93CF93DF936C017B0189E3DE
:100410000E94D600882309F46DC060912801C09124
:10042000290180E00E94E0006C2F81E00E94E00042
:1004300060E08AE30E945A00C82F60E08AE30E94CD
:100440005A00D0E0D82BD0932901C093280160E056
:100450008AE30E945A00B82E60E08AE30E945A00A4
:10046000A82E60E08AE30E945A00082F60E08AE329
:100470000E945A0007FF11C081E0C81AD1080B2D55
:1004800010E01A2904501109C016D10608F486019B
:10049000B701C8010E947C0002C000E010E06C2F90
:1004A0008CE00E94E0006D2F8DE00E94E0007E0154
:1004B00081E0E81AF1088FEFE81689E1F80648F0C4
:1004C0006EEF8CE00E94E00069E18DE00E94E000A8
:1004D00009C06C2F61508CE00E94E0006F2D8DE010
:1004E0000E94E00040E46EE180E80E946F00802FEF
:1004F000912F02C080E090E0DF91CF911F910F918A
:10050000FF90EF90DF90CF90BF90AF900895CF9283
:10051000DF92EF92FF92CF93DF93EC01DB0141304A
:1005200061F46B0188E0C81AD108E12CF12C81E15B
:10053000C80ED11CE11CF11C11C0423061F46B01EA
:1005400088E0C81AD108E12CF12C86E0C80ED11C35
:10055000E11CF11C03C0C12CD12C7601A230B105E5
:10056000F0F09D01FE01408150E060E070E0762FE8
:10057000652F542F44278181482BC40ED51EE61EBB
:10058000F71E3296225031092230310560F7CD0135
:1005900002978E7F0296C80FD91FA170BB27AB2B85
:1005A00061F0888190E0A0E0B0E0BA2FA92F982FE9
:1005B0008827C80ED91EEA1EFB1EA70166277727CB
:1005C000411551056105710571F0EE24FF24C40E3B
:1005D000D51EE61EF71EA701662777274115510590
:1005E0006105710591F7C60180959095DF91CF91D6
:1005F000FF90EF90DF90CF90089550933501409396
:100600000001A62FB72FEBE2F1E04FE251E02D9170
:100610002193E417F507D9F7A82FB92FEFE2F1E0FE
:1006200025E331E08D918193E217F307D9F708951F
:1006300069327105C8F0FC0124852830B9F425859C
:100640002630B1F436A120912B01321313C0B79696
:10065000ACE2B1E08A9631912D9132130DC0E817CA
:10066000F907C9F781E0089580E0089580E00895D2
:1006700080E0089580E0089580E00895CF93DF93AF
:10068000FC016A327105E0F084858830D9F48585F3
:1006900081111AC096859534C1F4268D90912B0155
:1006A000291313C0DF015F96CCE2D1E0B2962D9101
:1006B000999129130AC0AE17BF07C9F781E005C099
:1006C00080E003C080E001C080E0DF91CF91089519
:1006D000FC01AFE2B1E09C012A5F3F4F868181932C
:1006E0008D918583E217F307C9F70895CF93DF93C0
:1006F000EC01188E198E80E48C8B1D8A8E8B40E065
:1007000064E170E0CE010E960E948702988F898F77
:10071000DF91CF910895AC01ABE2B1E0FC017A9694
:100720002FE231E0908194839D919193A217B307BA
:10073000C9F7CA010E9476030895CF93DF93EC01B5
:100740000E9468031C8A82E08D8BAFE2B1E0FE015B
:10075000769625E331E0808182878D918193A2177F
:10076000B307C9F7ABE2B1E0FE017C962FE231E0BE
:10077000808182878D918193A217B307C9F7BE014B
:100780008AE290E00E94B801DF91CF9108950F9323
:100790001F93CF93DF93EC018B010E946803CE017E
:1007A0000E948B031AA28CA1883F18F09DA19F5F25
:1007B0009DA3885F8CA3BE01C8010E94B801DF9190
:1007C000CF911F910F910895DC01FA016115710518
:1007D00041F0680F791F84918D9332966A177B07D9
:1007E000D1F70895AF92BF92CF92DF92EF92FF922E
:1007F0000F931F93CF93DF935C01162F072FC42E07
:10080000D52EF22EE32EA1E2B1E0FC018FE291E0C1
:1008100047E251E02D912193EC012991CE012583EE
:10082000A417B507B9F788E0F501848715864CE66B
:1008300050E069E070E0C5010E960E94E403E50116
:10084000188A81E18F8B8C2D9D2DABE2B1E0F501F3
:100850007A964FE251E0EC012991CE0124832D914B
:100860002193A417B507B9F7F501E4A2F5A202A3F5
:1008700013A316A210A611A6DF91CF911F910F917D
:10088000FF90EF90DF90CF90BF90AF9008950F93BF
:100890001F93CF93DF93EC01062F8CE1860F898B9A
:1008A000CE010E94760388E0800F8FA310E0B8018C
:1008B000605F7F4F41E0CE014A960E94870298A771
:1008C00089A7BE01C8018A960E94B801DF91CF9125
:1008D0001F910F910895BF92CF92DF92EF92FF92F6
:1008E0000F931F93CF93DF93EC01B62EC72ED42E18
:1008F000B901A80197010E94F2036D2D6D3D08F02A
:100900006CED662381F0AB2DBC2DFE01BA962FEF66
:10091000260F30E0255D3F4F2C0F3D1F8D918193B9
:10092000E217F307D9F7CE010E944704DF91CF9178
:100930001F910F91FF90EF90DF90CF90BF9008959F
:100940008FEF8AB9C0E08C2F8A95F1F78BE191E0A7
:100950000E94110182E00E940B018C2F8A95F1F711
:1009600066E774E084E10E94EE00CA95F1F740ED7D
:1009700057E067E171E08BE191E00E94FD0260E4E5
:1009800071E08AE892E00E94FB01EC010097B9F364
:10099000BC0180E491E00E941803892B29F080E4D7
:1009A00091E00E949D03EBCFBE0180E491E00E94A4
:1009B0003E03882321F30F2EF0E8EF2EF5E2FF2E01
:1009C000F02D03E111E020ED37E042E161E071E05C
:1009D00088E391E00E946B042FEF83ED90E32150B8
:1009E00080409040E1F700C00000809157018130C5
:1009F00031F680916201883011F6BE0180E491E009
:100A00000E94C7038091360190913701019690931F
:0C0A1000370180933601B3CFF894FFCF7C
:100A1C00500102030405000000000000000000006B
:100A2C00000000C0A80250C0A8020622222210001A
:080A3C0033645106A809A20071
:00000001FF
