S01700004763634170706C69636174696F6E312E737265635B
S11300000C9436000C9440000C9440000C94400076
S11300100C9440000C9440000C9440000C9440005C
S11300200C9440000C9440000C9440000C9440004C
S11300300C9440000C9440000C9440000C9440003C
S11300400C9440000C9440000C9440000C9440002C
S11300500C9440000C9440000C9440000C9440001C
S11300600C9440000C9440000C94400011241FBEDA
S1130070CFEFD4E0DEBFCDBF0E9442000C94590004
S11300800C9400008FEF8AB98BB92FEF33ED90E316
S1130090215030409040E1F700C000001BB82FEF22
S11300A033ED90E3215030409040E1F700C0000070
S10900B0EBCFF894FFCF32
S9030000FC
