:100000000C943B000C9458000C9458000C9458002D
:100010000C9458000C9458000C9458000C94580000
:100020000C9458000C9458000C9458000C945800F0
:100030000C9458000C9458000C9458000C945800E0
:100040000C9458000C9458000C9458000C945800D0
:100050000C9458000C9458000C9458000C945800C0
:100060000C9458000C9458000C9458000806000199
:1000700008000604000111241FBECFEFD4E0DEBF4C
:10008000CDBF11E0A0E0B1E0E2E0F8E002C00590F1
:100090000D92AA30B107D9F721E0AAE0B1E001C082
:1000A0001D92A631B207E1F70E94AD030C94FF0345
:1000B0000C9400002A98962F9F71892B8EBD0DB449
:1000C00007FEFDCF1EBC0DB407FEFDCF67FD03C0CC
:1000D0002A9A8EB508951EBC0DB407FEFDCFF8CF49
:1000E0002A986F71862B8EBD0DB407FEFDCF4EBDD5
:1000F0000DB407FEFDCF2A9A0895CF9390910C017D
:10010000981771F0C82F43E06FE180EA0E947000F9
:100110004C2F43706FE180E80E947000C0930C0187
:10012000CF9108952A989AE39EBD0DB407FEFDCFA6
:10013000882351F081501EBC0DB407FEFDCF9EB543
:10014000FB019193BF01F4CF2A9A08952A989AE768
:100150009EBD0DB407FEFDCF882349F08150FB0101
:100160009191BF019EBD0DB407FEFDCFF5CF2A9A38
:100170000895CF93C82F82E00E947D004C2F64ED3C
:1001800080E40E94700041E062ED80E40E94700013
:100190008EE38A95F1F700C083E00E947D006AEE4D
:1001A00080E00E945A0080FDFACF82E00E947D002C
:1001B00040E062ED80E40E94700069ED80E0CF9144
:1001C0000C945A001F93CF93DF93182FD62FC72F6D
:1001D00082E00E947D00412F64ED80E40E94700067
:1001E0004D2F66ED80E40E9470004C2F67ED80E497
:1001F0000E94700083E00E947D006AEE80E00E9411
:100200005A0080FF05C08EE38A95F1F700C0F5CF54
:10021000DF91CF911F9108951F93CF93DF93EC014E
:100220008FEF80930C01229A2A9A84B1886284B954
:10023000249A2B9A2D9A80E58CBD8DB581608DBD59
:100240004FEF6FE18FEF0E94700027E488EE91E09E
:10025000215080409040E1F700C0000083E00E9400
:100260007D0042E065E780E40E94700080E00E942B
:100270007D0010920B0110920A0140E068E080E4DA
:100280000E94700040E069E080E40E94700040E05D
:100290006CE080E40E94700040E06DE080E40E9429
:1002A00070004DEF6AE080E40E94700049E16BE06D
:1002B00080E40E9470004FEF64E080E40E947000D0
:1002C00049E165E080E40E9470004EE066E080E471
:1002D0000E9470004AE167E080E40E9470004FEFE6
:1002E00062E080E40E94700049E163E080E40E94E3
:1002F000700040E060E08AE70E94700016E04FEF77
:1003000060E08AE70E9470001150C9F7BE0186E0E4
:100310000E94A60040E060E08AE70E94700041E091
:1003200060E08AE70E94700081E00E947D0040EA60
:1003300068E380E40E94700082E00E947D0041E05A
:1003400060EC80E40E94700040E061EC80E40E9478
:10035000700042E362EC80E40E94700040E763ECCE
:1003600080E40E94700041E16AEC80E40E94700029
:1003700041E06BEC80E40E94700042E166EC80E4B6
:100380000E9470004CE067EC80E40E94700042E143
:1003900064EC80E40E94700083E00E947D0048814C
:1003A00064EE80E40E947000498165EE80E40E9462
:1003B00070004A8162EE80E40E9470004B8163EE1F
:1003C00080E40E9470004C8160EE80E40E94700026
:1003D0004D8161EE80E40E94700066E774E084E184
:1003E0000E94E20060E071E080E10E94E20040ECE7
:1003F0006BE180E80E94700044E06FE180E8DF91EB
:10040000CF911F910C94700081E10E94B90084701B
:1004100008958F929F92AF92BF92CF92DF92EF9208
:10042000FF920F931F93CF93C82F5B016A01E09057
:100430000A01F0900B0181E00E947D0069E380E0F9
:100440000E945A00882309F483C080E00E947D0046
:100450004E2D60E080E40E9470004F2D61E080E44A
:100460000E94700060E08AE30E945A00082F60E05A
:100470008AE30E945A0010E0182B10930B0100939E
:100480000A0160E08AE30E945A00882E912C60E005
:100490008AE30E945A009401382BC9012C2F30E0C6
:1004A000AC014E5051094217530710F4C2EFC80F68
:1004B00047013CE0830E911C8EEF881689E1980677
:1004C00028F0470122EF821A29E1920A482D60E0C4
:1004D00080E40E947000492D61E080E40E94700079
:1004E000B50186E00E94920060E08AE30E945A0013
:1004F00081110CC060E08AE30E945A008C1708F456
:10050000C82FB6018C2F0E94920001C0C0E0780174
:1005100031E0E31AF1088EEFE81689E1F80638F0C9
:100520004DEF6CE080E40E94700049E107C04FEF9E
:10053000400F6CE080E40E9470004F2D6DE080E47D
:100540000E94700040E46EE180E80E9470008C2FF1
:10055000CF911F910F91FF90EF90DF90CF90BF90C0
:10056000AF909F908F900895EF92FF920F931F93FB
:10057000CF93DF938C0180E00E947D006FE180E0EB
:100580000E945A0083FF11C06CE180E00E945A0073
:1005900081FFF4CF40E86FE180E80E94700040E8FE
:1005A0006FE180EA0E947000E9CF40E062E080E401
:1005B0000E9470004AE163E080E40E947000C6E09F
:1005C0004FEF60E08AE70E947000C150C9F74CE02D
:1005D00062E080E40E9470004AE163E080E40E94EF
:1005E0007000CCE6D0E0FE01449160E08AE70E9412
:1005F00070002196F0E0C637DF07A9F7E8010A5F2F
:100600001F4F499160E08AE70E947000C017D10730
:10061000C1F7C6E0D1E08AE0E82E81E0F82E8E0135
:10062000F80141918F0160E08AE70E947000F1E0DB
:100630000A301F07A9F716E04FEF60E08AE70E9433
:1006400070001150C9F7499160E08AE70E9470007C
:10065000EC16FD06C1F749E266E080E40E947000F6
:100660004AE167E080E40E94700048E06FE180E8C2
:10067000DF91CF911F910F91FF90EF900C9470003C
:10068000EF92FF920F931F93CF93DF93C82F7B01BD
:100690008A0180E00E947D006FE180E00E945A00A4
:1006A00083FF11C06CE180E00E945A0081FFF4CF0B
:1006B00040E86FE180E80E94700040E86FE180EA66
:1006C0000E947000E9CF40E062E080E40E94700088
:1006D0004AE163E080E40E947000B70186E00E9476
:1006E000A6004CE062E080E40E9470004AE163E012
:1006F00080E40E94700040E060E08AE70E947000A1
:100700004C2F60E08AE70E947000B8018C2F0E9495
:10071000A600D0E0C35FD54E4C2F66E080E40E9477
:1007200070004D2F67E080E40E94700048E06FE1A8
:1007300080E8DF91CF911F910F91FF90EF900C9483
:10074000700080E58093C4001092C50088E080931B
:10075000C10086E08093C20008950E94A10380E852
:10076000809361001092610083E294EF0197F1F7AA
:1007700000C0000080E091E00E940C0197E428EEA8
:1007800081E0915020408040E1F700C000000E94CD
:1007900004028823E1F397E428EE81E091502040A1
:1007A0008040E1F700C0000080E091E00E94B402C8
:1007B000C0E0D0E011E403E54DE051E060E171E01C
:1007C00083E00E9409028823B9F3DD2321F000931E
:1007D000C600D0E003C01093C600D1E080910E01A6
:1007E0008BB9CF5F86B180930E01C0930F014DE0AE
:1007F00051E060E171E083E00E944003DDCFF894B6
:02080000FFCF28
:0A0802002222221000330A0A2A2ADB
:00000001FF
