:100000000C9436000C9440000C9440000C9440007A
:100010000C9440000C9440000C9440000C94400060
:100020000C9440000C9440000C9440000C94400050
:100030000C9440000C9440000C9440000C94400040
:100040000C9440000C9440000C9440000C94400030
:100050000C9440000C9440000C9440000C94400020
:100060000C9440000C9440000C94400011241FBEDE
:10007000CFEFD4E0DEBFCDBF0E9442000C945B0006
:100080000C94000087E68093C4001092C50088E0BD
:100090008093C10086E08093C200E6ECF0E083E547
:1000A00080832FEF33ED90E3215030409040E1F713
:0A00B00000C00000F5CFF894FFCF68
:00000001FF
